:020000040800F2
:10000000000400209D0100088F02000887020008FC
:100010008B020008E50100080D0400080000000044
:10002000000000000000000000000000B502000811
:10003000E90100080000000091020008B501000875
:10004000B7010008B7010008B7010008B7010008B0
:10005000B7010008B7010008B7010008B7010008A0
:10006000B7010008B7010008B7010008B701000890
:10007000B7010008B7010008B7010008B701000880
:10008000B7010008B7010008B7010008B701000870
:10009000B7010008B7010008B7010008B701000860
:1000A000B7010008B7010008B7010008B701000850
:1000B000B7010008B7010008B7010008B701000840
:1000C000B7010008B7010008B7010008B701000830
:1000D000B7010008B7010008B7010008B701000820
:1000E000B7010008B7010008B7010008B701000810
:1000F000B7010008B7010008B7010008B701000800
:10010000B7010008B7010008B7010008B7010008EF
:10011000B7010008B7010008B7010008B7010008DF
:10012000B7010008B7010008B7010008B7010008CF
:10013000B7010008B7010008B7010008B7010008BF
:10014000B7010008B7010008B7010008B7010008AF
:10015000B7010008B7010008B7010008B70100089F
:10016000B7010008B7010008B7010008B70100088F
:10017000B7010008B7010008B7010008B70100087F
:10018000B7010008B7010008DFF80CD000F018F83C
:1001900000480047AD0400080004002006488047DE
:1001A00006480047FEE7FEE7FEE7FEE7FEE7FEE75C
:1001B000FEE7FEE7FEE7FEE7A50300088901000869
:1001C000064C074D06E0E06840F0010394E80700A4
:1001D00098471034AC42F6D3FFF7DAFF2005000849
:1001E0003005000800BFFEE77047F0B50A46002161
:1001F0000023002400BF3DE0012505FA01F3156846
:1002000005EA03049C4234D105684F000326BE4032
:10021000B543056015794E00B54006683543056065
:100220001579012D02D01579022D16D185684F0060
:100230000326BE40B543856055794E00B5408668BB
:1002400035438560456801268E40B5434560456865
:1002500096798E40B6B235434560C5684F00032697
:10026000BE40B543C560D5794E00B540C66835433C
:10027000C560491C1029BFD3F0BD0AB1816101E0FE
:100280000B048361704700BFFEE700BFFEE77047C5
:100290007047000029B1064A12680243044B1A60F5
:1002A00004E0034A12688243014B1A607047000061
:1002B00030380240704700000CB5002001900090DB
:1002C0003448006840F480303249086000BF31484B
:1002D000006800F4003000900198401C01900098E4
:1002E00018B90198B0F5A04FF1D12A48006800F480
:1002F000003010B10120009001E000200090009833
:10030000012846D123484030006840F08050214900
:10031000403108602048006840F440401E490860B1
:100320001C48083000681B4908310860084600680E
:1003300040F4004008600846006840F4A05008609F
:100340001648091F0860081F006840F08070091FE8
:10035000086000BF0F48006800F000700028F9D066
:1003600040F205700E4908600A480830006820F025
:1003700003000849083108600846006840F00200A0
:10038000086000BF03480830006800F00C0008282F
:10039000F8D10CBD003802400070004019544007ED
:1003A000003C024010B51548006840F47000134945
:1003B00008601348006840F00100114908600020FF
:1003C0000F49083108600E4800680E4908400C4982
:1003D00008600D48091D0860081F006820F480208F
:1003E000091F0860002006490C310860FFF764FF10
:1003F0004FF0006001498039086010BD88ED00E0D1
:1004000000380240FFFFF6FE1030002400BFFEE778
:1004100002E008C8121F08C1002AFAD170477047CD
:10042000002001E001C1121F002AFBD1704700200B
:100430000AE0002104E000BF00BF00BF00BF491C6C
:10044000B1F57A7FF7D3401CB0F57A7FF1D37047CE
:100450001CB5044601212068FFF71CFF0020009016
:1004600001902089009001208DF8040000208DF873
:10047000060001208DF8050069466068FFF7B5FEAB
:10048000E27A21896068FFF7F8FE1CBD10B50446CA
:10049000E27A21896068FFF7F0FE10BD10B50446CE
:1004A000A27A21896068FFF7E8FE10BD1048FFF7C7
:1004B000CFFF1048FFF7CCFF0F48FFF7C9FF15E04B
:1004C0000B48FFF7EBFF0B48FFF7E8FF0A48FFF781
:1004D000E5FFFFF7ACFF0648FFF7D8FF0548FFF739
:1004E000D5FF0548FFF7D2FFFFF7A1FFE8E70000BF
:1004F000FC040008080500081405000810000000AE
:100500000010024020000001100000000010024016
:10051000400000010400000000080240002000012B
:10052000300500080000002000040000200400083E
:040000050800018965
:00000001FF
