:020000040800F2
:10000000000401205D020008650200086702000884
:10001000690200086B0200086D0200080000000081
:100020000000000000000000000000009D0100082A
:100030007102000800000000F901000895040008A2
:1000400077020008770200087702000877020008AC
:10005000770200087702000877020008770200089C
:10006000770200087702000877020008770200088C
:10007000770200087702000877020008770200087C
:10008000770200087702000877020008770200086C
:10009000770200087702000877020008770200085C
:1000A000770200087702000877020008770200084C
:1000B000770200087702000877020008770200083C
:1000C000770200087702000877020008770200082C
:1000D000770200087702000877020008770200081C
:1000E000770200087702000877020008770200080C
:1000F00077020008770200087702000877020008FC
:1001000077020008770200087702000877020008EB
:1001100077020008770200087702000877020008DB
:1001200077020008770200087702000877020008CB
:1001300077020008770200087702000877020008BB
:1001400077020008770200087702000877020008AB
:10015000770200087702000877020008770200089B
:10016000770200087702000877020008770200088B
:10017000770200087702000877020008770200087B
:100180007702000877020008DFF80CD000F09CF836
:1001900000480047D1050008000401202C4B1968D5
:1001A0000868B0E8F04F80F30988BFF36F8F4FF015
:1001B000000080F3118870470000000008480068C4
:1001C000006880F308884FF0000080F3148862B65E
:1001D00061B6BFF34F8FBFF36F8F00DF00BF00BF6B
:1001E00008ED00E0DFF80C00016841F470010160E7
:1001F000704700BF88ED00E0EFF30980BFF36F8F19
:10020000134B1A681EF0100F08BF20ED108A20E96A
:10021000F04F106009B44FF0500080F31188BFF325
:100220004F8FBFF36F8F01F047FA4FF0000080F35C
:10023000118809BC19680868B0E8F04F1EF0100F6B
:1002400008BFB0EC108A80F30988BFF36F8F704746
:1002500014000010EFF30580704700000648804747
:1002600006480047FEE7FEE7FEE7FEE7FEE7FEE79B
:10027000FEE7FEE7FEE7FEE7C90400088901000883
:1002800040EA01039B0703D009E008C9121F08C018
:10029000042AFAD203E011F8013B00F8013B521E98
:1002A000F9D27047D2B201E000F8012B491EFBD20F
:1002B00070470022F6E710B513460A460446194671
:1002C000FFF7F0FF204610BD064C074D06E0E06842
:1002D00040F0010394E8070098471034AC42F6D38D
:1002E000FFF756FF0424000834240008F0B50A463E
:1002F00000210023002400BF3DE0012505FA01F3A1
:10030000156805EA03049C4234D105684F000326B2
:10031000BE40B543056015794E00B54006683543CB
:1003200005601579012D02D01579022D16D1856849
:100330004F000326BE40B543856055794E00B54059
:10034000866835438560456801268E40B543456023
:10035000456896798E40B6B235434560C5684F0012
:100360000326BE40B543C560D5794E00B540C6688A
:100370003543C560491C1029BFD3F0BD0AB1816166
:1003800001E00B048361704729B1064A12680243F9
:10039000044B1A6004E0034A12688243014B1A605E
:1003A00070470000303802400CB5002001900090EA
:1003B0003448006840F480303249086000BF31485A
:1003C000006800F4003000900198401C01900098F3
:1003D00018B90198B0F5A04FF1D12A48006800F48F
:1003E000003010B10120009001E000200090009842
:1003F000012846D123484030006840F08050214910
:10040000403108602048006840F440401E490860C0
:100410001C48083000681B4908310860084600681D
:1004200040F4004008600846006840F4A0500860AE
:100430001648091F0860081F006840F08070091FF7
:10044000086000BF0F48006800F000700028F9D075
:1004500040F205700E4908600A480830006820F034
:1004600003000849083108600846006840F00200AF
:10047000086000BF03480830006800F00C0008283E
:10048000F8D10CBD0038024000700040085440070D
:10049000003C024010B500BF502080F31188BFF32C
:1004A0004F8FBFF36F8F00BF01F06AFD18B14FF09F
:1004B00080500449086000BF002080F3118800BF0D
:1004C00010BD000004ED00E010B51548006840F4D0
:1004D0007000134908601348006840F0010011499A
:1004E000086000200F49083108600E4800680E4976
:1004F00008400C4908600D48091D0860081F006885
:1005000020F48020091F0860002006490C31086093
:10051000FFF74AFF4FF0006001498039086010BDC5
:1005200088ED00E000380240FFFFF6FE10300024A6
:1005300002E008C8121F08C1002AFAD170477047AC
:10054000002001E001C1121F002AFBD170470446C0
:100550002546284600F00EF80BE0284600F030F85B
:10056000C82000F0D7FF284600F022F8C82000F08D
:10057000D1FFF2E71CB5044601212068FFF704FF14
:100580000020009001902089009001208DF8040047
:1005900000208DF8060001208DF80500694660688E
:1005A000FFF7A4FEE27A21896068FFF7E7FE1CBD31
:1005B00010B50446E27A21896068FFF7DFFE10BDBE
:1005C00010B50446A27A21896068FFF7D7FE10BDF6
:1005D0001CB500200121104B0A02CDE900100FA12B
:1005E000114801F087FC00200121104B0A02CDE9DF
:1005F00000100AA10C4801F07DFC002001210C4BE9
:100600000A02CDE9001005A1074801F073FC00F0D3
:10061000FDFF00201CBD0000E0230008626C696E35
:100620006B5F6C65640000004F050008EC23000858
:10063000F82300082DE9F04105460E4616480768E4
:1006400016480068001D00F0F5FD681C38B936B189
:1006500012480168091D124800F02AFE1AE07C19B0
:100660000E4800684460BC4207D20C480168091D6E
:100670000C48006800F002FE0CE008480168091D03
:100680000948006800F0FAFD08480068844201D279
:1006900006480460BDE8F081280000101400001036
:1006A000FC0100101C000010180000104400001095
:1006B00010B5044600F008FE22480068401C21499D
:1006C00008602148006840B91F4804600846006877
:1006D00001280DD100F0D6F90AE01C48006838B9AD
:1006E00019480068C06AE16A884201D81648046067
:1006F00017480068401C164908601649E06A0968F6
:10070000884202D91349E06A0860E16A01EB81017D
:10071000114A02EB8100211D00F0CAFD00F0FEFD30
:100720000A48006868B108480068C06AE16A8842FF
:1007300007D24FF0805009490860BFF34F8FBFF3D5
:100740006F8F10BD24000010140000103000001046
:10075000400000102C000010E400001004ED00E048
:1007600010B500F0B1FD10480068D0B90F4800F096
:1007700075FD0F4800F072FD0C480E4908600C48EA
:100780000D49086000220C21102001F091F8064963
:1007900008600846006820B108A10348006800F01E
:1007A0007DFE00F0BBFD10BD5C00001010020010CB
:1007B000240200105400001058000010546D7251B3
:1007C0000000000010B516E000F07EFD0C48C06887
:1007D000C468201D00F02EFD0A480068401E09492B
:1007E000086009480068401E0749086000F096FD4F
:1007F000204600F05FF8044800680028E4D110BDEE
:10080000E8010010240000102000001070B504461C
:100810000D46206C70B1216CE0680144E160D4E9C0
:100820000210884201D32168E1602846226CE16809
:10083000FFF726FD70BD2DE9F04104460F46154631
:100840004FF00008A66B206C48B9206800282CD116
:10085000A06801F037FC80460020A06025E07DB94B
:100860003946226C6068FFF70BFD216C6068084414
:100870006060D4E90101884217D32068606014E009
:100880003946226CE068FFF7FBFC216CE068411AF6
:10089000E1602168E068884203D2216CA068411AB7
:1008A000E160022D01D106B1761E701CA0634046A6
:1008B000BDE8F08110B50446206B00F04DFD2046E8
:1008C00000F04AFD10BD00000146084A1268126897
:1008D0000AB9012200E000220A600A6822B9034A2C
:1008E0001268D268106800E00020704754000010C1
:1008F00030B54FF48033174800F007042CB1C01D09
:1009000020F00700134C041B1B1B0246124C2260F4
:100910000024114D6C60D018083820F007000F4CEF
:10092000206000240D4D2D686C600C4D2D682C60EE
:100930001146441A4C60094C24680C60084D4C6800
:100940002C60084D4C682C604FF00044064D2C6024
:1009500030BD000000000020680000107000001092
:1009600078000010740000108400001000BFFFF732
:1009700029FF064800680128F9D94FF08050044942
:100980000860BFF34F8FBFF36F8FF0E7E4000010F4
:1009900004ED00E02DE9F04106460D461746984665
:1009A000069C0DB9246000E02760E6632564012100
:1009B000204600F0CFFF0020A064BDE8F0812DE9C3
:1009C000FF5F81460E469246DDE90E7B109CAAF140
:1009D0000100216B01EB800828F0070808F00700F0
:1009E00008B9012000E0002050B900BF502080F37A
:1009F0001188BFF34F8FBFF36F8F00BF00BFFEE7BB
:100A000086B1002507E0715D04F134004155705D49
:100A100000B902E06D1C102DF5D300BF002143206A
:100A2000015502E0002084F834000A2F00D3092782
:100A3000E76267640020A064201D00F01CFC04F144
:100A4000180000F018FC2461C7F10A00A06164627C
:100A5000142104F14C00FFF72CFC00202066606696
:100A6000A066A4F86C0084F86E0049464046039ADC
:100A700000F0CAFB2060BBF1000F01D0CBF80040B2
:100A8000BDE8FF9F10B5002407E004EB84010F4A86
:100A900002EB810000F0E2FB641C0A2CF5D30C4849
:100AA00000F0DCFB0B4800F0D9FB0B4800F0D6FB54
:100AB0000A4800F0D3FB0A4800F0D0FB044809497B
:100AC000086004480849086010BD0000E4000010F8
:100AD000AC010010C0010010D4010010E8010010AA
:100AE000FC010010180000101C00001010B5014699
:100AF000164800E0006803688B42FBD30246436857
:100B000013448B4204D143684C682344436001463C
:100B10000A464B6813440468A34211D10C4C036885
:100B20002468A34208D04B680468646823444B607F
:100B300003681B680B6005E0054B1B680B6001E058
:100B400003680B60884200D0016010BD680000108F
:100B5000700000102DE9F04104460D4616461F4670
:100B60004FF0000865602461B5420CD8F01BA16904
:100B7000884202D34FF0010811E0211D09480068A6
:100B800000F07CFB0BE0BE4204D2BD4202D34FF02A
:100B9000010804E0211D0448006800F06FFB404696
:100BA000BDE8F081580000105400001070B50546F3
:100BB00000F08AFBA86B08B9012400E0002400F0D3
:100BC000ADFB204670BD70B5054600F07DFBA86BFF
:100BD000E96B884201D1012400E0002400F09EFB73
:100BE000204670BDF1B50098846C002654B900BF52
:100BF000502080F31188BFF34F8FBFF36F8F00BF7A
:100C000000BFFEE7A06BE16B884201D2012000E04B
:100C1000002050B900BF502080F31188BFF34F8FE0
:100C2000BFF36F8F00BF00BFFEE7A06BE16B884290
:100C30002CD294F94550002269462046FFF7FBFD6F
:100C40000646681C60B9606A08B9012000E000200F
:100C5000D8B904F1240001F087FAB0B1012614E0FC
:100C60007F2D01D0012000E0002050B900BF5020AE
:100C700080F31188BFF34F8FBFF36F8F00BF00BFAA
:100C8000FEE7681C40B284F8450000BF3046F8BD5E
:100C9000F8B505460F461A480068C068C468201DAC
:100CA00000F0C8FA94F8240000F00400E8B1A0694C
:100CB00041192B463A462046FFF74CFFD8B1002099
:100CC00003462A4601460090204601F047FB0646AF
:100CD00056B900BF502080F31188BFF34F8FBFF388
:100CE0006F8F00BF00BFFEE705E094F8240020F0FE
:100CF000010084F824002046216A8847F8BD0000DE
:100D00005400001070B586B08BE003980028FBDB20
:100D1000059C606908B9012000E0002010B9201D81
:100D200000F088FA02A800F0DBF8054603980A28CC
:100D300075D2DFE800F009050739416306083A4239
:100D400000BF00BF00BF00BF94F8240040F00100C6
:100D500084F824000498A269811803462A46204694
:100D6000FFF7F8FEF8B12046216A884794F824007E
:100D700000F00400B8B1002000900498A169421866
:100D800000231946204601F0E9FA064656B900BF8D
:100D9000502080F31188BFF34F8FBFF36F8F00BFD8
:100DA00000BFFEE700BF3BE000BF94F8240020F046
:100DB000010084F8240033E000BF94F8240040F0E0
:100DC000010084F824000498A061A06908B1012002
:100DD00000E0002050B900BF502080F31188BFF31D
:100DE0004F8FBFF36F8F00BF00BFFEE7A0694119AF
:100DF0002B462A462046FFF7ADFE11E094F824006A
:100E000000F0020018B9204600F0A6FA05E094F8B8
:100E1000240020F0010084F8240001E0FFE700BF77
:100E200000BF002203A90448006800F067FF002803
:100E30007FF46BAF06B070BD5C000010F8B50546DE
:100E40000C4600F031FC684600F04AF8064600986F
:100E500020BB44B9B54206D801F0D2F93146284644
:100E6000FFF716FF1CE03CB10E480068006808B9A7
:100E7000012000E000200446A91B22460A48006821
:100E800000F022FB01F0BCF950B94FF08050074947
:100E90000860BFF34F8FBFF36F8F01E001F0B0F92F
:100EA000F8BD0000580000105C00001004ED00E0E8
:100EB00009480068006808B9012000E0002020B15E
:100EC0004FF0FF300549086005E003480068C0683E
:100ED00000680249086070471800001044000010C4
:100EE00070B5044601F046F805460748006885429B
:100EF00004D200F00BF80120206001E00020206007
:100F000001480560284670BD640000102DE9F843D3
:100F100034E025480068C068056823480068C06858
:100F2000C468201D00F086F92046216A884794F89D
:100F3000240000F0040008B3A0694619AE4207D9A6
:100F400066602461211D1848006800F097F915E0DB
:100F5000002003462A4601460090204601F0FEF993
:100F6000074657B900BF502080F31188BFF34F8F59
:100F7000BFF36F8F00BF00BFFEE700BF0A480068E5
:100F8000006808B9012000E000200028C1D0064810
:100F9000D0F8008005480068034908600348C0F89D
:100FA0000080BDE8F88300005400001058000010D5
:100FB0000E480068401C08B9012000E0002050B92C
:100FC00000BF502080F31188BFF34F8FBFF36F8FA6
:100FD00000BF00BFFEE700BF502080F31188BFF3C1
:100FE0004F8FBFF36F8F00BF00BFFEE78800001078
:100FF00008B500BF6846FFF767FC04462046009925
:10100000FFF71CFFFFF77EFEF4E770B5044600F023
:101010005BF994F9455019E0A06C30B12046FFF718
:10102000E1FD88B100F0B0FA0EE0606A08B9012075
:1010300000E0002038B904F1240001F095F818B15F
:1010400000F0A2FA00E003E0681E45B2002DE3DCE8
:1010500000BFFF2084F8450000F060F900F034F98B
:1010600094F9445010E0206908B9012000E0002004
:1010700048B904F1100001F077F808B100F084FAE3
:10108000681E45B200E001E0002DECDC00BFFF204F
:1010900084F8440000F042F970BD00002DE9F041F1
:1010A00004464FF0000800F0FFFA5148006808B904
:1010B000FFF71EFC4F480068204000287ED13CB35B
:1010C00004F10800A04223D9083404F0070000B35B
:1010D00004F00700C0F108002044A04216D904F033
:1010E0000700C0F10800044404F0070008B901201B
:1010F00000E0002068B900BF502080F31188BFF3E2
:101100004F8FBFF36F8F00BF00BFFEE7002400E0EA
:101110000024002C54D038480068844250D8374E00
:101120003046056801E02E462D686868A04202D26C
:1011300028680028F7D12E480068854240D03068E2
:1011400000F10808286830606868001B102819D969
:101150002F1907F0070008B9012000E0002050B95E
:1011600000BF502080F31188BFF34F8FBFF36F8F04
:1011700000BF00BFFEE76868001B78606C603846FF
:10118000FFF7B4FC1C4968680968081A1A49086026
:10119000084600681A490968884203D21648006860
:1011A00017490860134968680968084368600020A7
:1011B000286014480068401C124900E000E0086004
:1011C00001F01EF808F0070008B9012000E0002037
:1011D00050B900BF502080F31188BFF34F8FBFF389
:1011E0006F8F00BF00BFFEE74046BDE8F081000002
:1011F00070000010840000107400001068000010DF
:10120000780000107C000010001F4FF08073036016
:10121000001F21F001030360001F054B0360143819
:101220000260001F6FF00203036020387047000067
:10123000B10F000801460A69D1E901309860D1E98F
:10124000010358605068884201D1886850600020CE
:1012500008611068401E10601068704700F10801B6
:1012600041604FF0FF31816000F10801C160016110
:1012700000210160704700210161704710B50246EE
:101280000B685C1C0CB9106907E002F1080000E073
:101290004068446824689C42FAD944684C604C68B1
:1012A000A160886041600A611468641C146010BD0C
:1012B00042684A6093688B609368596091600861E6
:1012C00003685B1C0360704700BF502080F31188E7
:1012D000BFF34F8FBFF36F8F00BF0E480068401CF5
:1012E0000C49086008460068012812D10A480068C5
:1012F000C0B208B9012000E0002050B900BF502062
:1013000080F31188BFF34F8FBFF36F8F00BF00BF13
:10131000FEE770478800001004ED00E00D4800680B
:1013200050B900BF502080F31188BFF34F8FBFF337
:101330006F8F00BF00BFFEE706480068401E0549EA
:1013400008600846006820B9002080F3118800BFBB
:1013500000BF70478800001070B506463546002E65
:1013600044D0083D2C46224960680968084008B10D
:10137000012000E0002050B900BF502080F3118808
:10138000BFF34F8FBFF36F8F00BF00BFFEE7206832
:1013900008B9012000E0002050B900BF502080F3C0
:1013A0001188BFF34F8FBFF36F8F00BF00BFFEE701
:1013B0000F49606809680840C0B12068B0B90C499D
:1013C000606809688843606000F06EF909496068E8
:1013D00009680844074908602046FFF787FB06486C
:1013E0000068401C0449086000F00AFF70BD00005E
:1013F00084000010740000108000001000204FF0E6
:10140000E02108618861064800684FF47A71B0FBFA
:10141000F1F0401E4FF0E02148610720086170475D
:101420000000001070B5FEF715FF0446102C16D30F
:1014300004F1E02090F8F05315480078854201DB74
:10144000012000E0002050B900BF502080F3118837
:10145000BFF34F8FBFF36F8F00BF00BFFEE70D4894
:10146000006800F4E0600C490968884201D8012056
:1014700000E0002050B900BF502080F31188BFF376
:101480004F8FBFF36F8F00BF00BFFEE770BD00003E
:101490008C0000100CED00E09000001002460020CF
:1014A0000BE0084B53F8303033B9064B43F830109B
:1014B00003EBC0035A6002E0401C0A28F1D300BFCE
:1014C00070470000940000102DE9F04105460E46DB
:1014D00017462C46FFF7F8FE94F94400401C10B95B
:1014E000002084F8440094F94500401C10B9002005
:1014F00084F84500FFF712FFA06B28B93A46314641
:1015000004F1240000F062F82046FFF77EFDBDE8FC
:10151000F081000070B504460025D4B1124800687F
:1015200008B9012000E0002050B900BF502080F32E
:101530001188BFF34F8FBFF36F8F00BF00BFFEE76F
:1015400000F0B2F800212046FFF774F800F058FED2
:1015500005463DB94FF0805004490860BFF34F8FF6
:10156000BFF36F8F70BD00005000001004ED00E06D
:101570000349096801600349096841607047000038
:101580003C0000102800001001200149086070474D
:101590003800001070B504460D4654B900BF502005
:1015A00080F31188BFF34F8FBFF36F8F00BF00BF71
:1015B000FEE70548016818312046FFF75FFE01216C
:1015C0002846FFF737F870BD1400001070B50546C7
:1015D0000E46144655B900BF502080F31188BFF362
:1015E0004F8FBFF36F8F00BF00BFFEE70648016853
:1015F00018312846FFF75CFE0CB14FF0FF3621464C
:101600003046FFF717F870BD140000101CB51E48D7
:1016100000210B464FF48072CDE900101BA11D483C
:1016200000F068FC0446012C02D100F06BFE044679
:10163000012C15D100BF502080F31188BFF34F8FCC
:10164000BFF36F8F00BF4FF0FF30134908600120D8
:101650001249086000201249086000F075F810E097
:10166000601C08B1012000E0002050B900BF5020EC
:1016700080F31188BFF34F8FBFF36F8F00BF00BFA0
:10168000FEE7084800681CBD4800001049444C456E
:10169000000000006D090008440000103000001038
:1016A000280000104C00001002480068401C01494E
:1016B00008607047500000101E48006818B10120F3
:1016C0001D49086034E000201B4908601B48016880
:1016D0000CE051B900BF502080F31188BFF34F8F49
:1016E000BFF36F8F00BF00BFFEE7491E01EB810013
:1016F000134A52F8200008B9012000E00020002819
:10170000E7D101EB81020E4B03EB82004268526885
:10171000426000F108024368934202D14268526875
:1017200042604268D268074B1A600448016000BFFB
:101730007047000050000010380000102C0000100E
:10174000E4000010140000101CB552480068524913
:10175000884201D0012000E0002050B900BF502095
:1017600080F31188BFF34F8FBFF36F8F00BF00BFAF
:10177000FEE7484800684849491E884201D00120D8
:1017800000E0002050B900BF502080F31188BFF363
:101790004F8FBFF36F8F00BF00BFFEE73F49084682
:1017A00000780190FF200A461070084600780090EB
:1017B0009DF8000000F0F0009DF80020904201D15B
:1017C000012000E0002050B900BF502080F31188B4
:1017D000BFF34F8FBFF36F8F00BF00BFFEE79DF8D1
:1017E000000000F050002E4A107007202D4A1060B3
:1017F00009E02C480068401E2A4A10609DF800004D
:101800004006000E00909DF8000000F08000802847
:10181000EFD024480068C0F10700042801D101205E
:1018200000E0002050B900BF502080F31188BFF3C2
:101830004F8FBFF36F8F00BF00BFFEE719480068EE
:101840000002184A10601046008800F4E060106042
:10185000124A019810700F482030006840F4700060
:101860000C49203108600846006840F0704008606C
:10187000FFF7C4FD00200C490860FEF7B3FC0B48DD
:10188000006840F0404009490860FEF797FC0020DE
:101890001CBD000000ED00E071C20F4100E400E05B
:1018A0008C000010900000108800001034EF00E061
:1018B0002DE9F84306460F4690460EB1012000E0A0
:1018C000002050B900BF502080F31188BFF34F8F24
:1018D000BFF36F8F00BF00BFFEE706FB07F51FB128
:1018E000B5FBF7F0B04201D1012000E0002050B973
:1018F00000BF502080F31188BFF34F8FBFF36F8F6D
:1019000000BF00BFFEE705F14C00A84201D901204D
:1019100000E0002050B900BF502080F31188BFF3D1
:101920004F8FBFF36F8F00BF00BFFEE705F14C0084
:10193000FFF7B4FB04464CB1A14609F14C094346FC
:101940004A46394630460094FFF724F82046BDE861
:10195000F883000070B505460E462C4654B900BF0A
:10196000502080F31188BFF34F8FBFF36F8F00BFFC
:1019700000BFFEE7FFF7A8FCD4E90F12206801FBC7
:101980000200A0600020A06320686060E06B401E41
:10199000226C216800FB0211E160FF2084F8440002
:1019A00084F845009EB9206908B9012000E00020B4
:1019B000A8B904F1100000F0D7FB80B14FF08050BF
:1019C00009490860BFF34F8FBFF36F8F07E004F141
:1019D0001000FFF743FC04F12400FFF73FFCFFF782
:1019E0009DFC012070BD000004ED00E02DE9FF47E3
:1019F00082B0064688461D464FF00009344654B969
:101A000000BF502080F31188BFF34F8FBFF36F8F5B
:101A100000BF00BFFEE7B8F1000F01D1206C08B98C
:101A2000012000E0002050B900BF502080F3118851
:101A3000BFF34F8FBFF36F8F00BF00BFFEE7022DD4
:101A400002D1E06B012801D1012000E0002050B953
:101A500000BF502080F31188BFF34F8FBFF36F8F0B
:101A600000BF00BFFEE700F075FA08B9049808B996
:101A7000012000E0002050B900BF502080F3118801
:101A8000BFF34F8FBFF36F8F00BF00BFFEE700BFF4
:101A9000FFF71AFCA06BE16B884201D3022D3ED107
:101AA000D4F838A02A4641462046FEF7C4FE074631
:101AB000A06C88B1022D02D1BAF1000F29D12046C5
:101AC000FFF790F828B34FF080503D490860BFF30E
:101AD0004F8FBFF36F8F1CE0606A08B9012000E0F0
:101AE000002068B904F1240000F03EFB88B14FF0FB
:101AF000805033490860BFF34F8FBFF36F8F08E00A
:101B00003FB14FF080502E490860BFF34F8FBFF3B5
:101B10006F8FFFF703FC012006B0BDE8F087049843
:101B200018B9FFF7FBFB0020F6E7B9F1000F04D16D
:101B30006846FFF71DFD4FF00109FFF7EFFBFFF7C8
:101B4000B3FDFFF7C1FB94F94400401C10B900201D
:101B500084F8440094F94500401C10B9002084F832
:101B60004500FFF7DBFB04A9684600F07BF9F8B9F4
:101B70002046FFF728F8A8B104F110000499FFF7F8
:101B800009FD2046FFF741FA00F03AFB00287FF4F8
:101B90007FAF4FF080500A490860BFF34F8FBFF30B
:101BA0006F8F75E72046FFF730FA00F029FB6FE7EB
:101BB0002046FFF72AFA00F023FB0020ACE70000E4
:101BC00004ED00E02DE9F84F80468B4615461E4691
:101BD000444654B900BF502080F31188BFF34F8FA3
:101BE000BFF36F8F00BF00BFFEE7BBF1000F01D155
:101BF000206C08B9012000E0002050B900BF50203F
:101C000080F31188BFF34F8FBFF36F8F00BF00BF0A
:101C1000FEE7022E02D1E06B012801D1012000E095
:101C2000002050B900BF502080F31188BFF34F8FC0
:101C3000BFF36F8F00BF00BFFEE7FFF7F3FB00BFEE
:101C40005021EFF3118081F31188BFF34F8FBFF361
:101C50006F8F00BF0746A06BE16B884201D3022E55
:101C600042D194F945A0A06B0090324659462046D7
:101C7000FEF7E1FD0AF10100E0B9A06C58B1022EB7
:101C800001D1009868BB2046FEF7ACFF48B345B3CE
:101C90000120286025E0606A08B9012000E00020EA
:101CA000F8B904F1240000F05FFAD0B1CDB1012001
:101CB000286016E0BAF17F0F01D0012000E000207B
:101CC00050B900BF502080F31188BFF34F8FBFF38E
:101CD0006F8F00BF00BFFEE70AF1010040B284F839
:101CE00045004FF0010901E04FF0000900BF87F304
:101CF000118800BF4846BDE8F88F00002DE9F74184
:101D000083B005460E464FF000082C4654B900BF7C
:101D1000502080F31188BFF34F8FBFF36F8F00BF48
:101D200000BFFEE70EB9206C08B9012000E00020DA
:101D300050B900BF502080F31188BFF34F8FBFF31D
:101D40006F8F00BF00BFFEE700F004F908B90598E7
:101D500008B9012000E0002050B900BF502080F3F6
:101D60001188BFF34F8FBFF36F8F00BF00BFFEE737
:101D700000BFFFF7A9FAA76BF7B131462046FEF77F
:101D800045FD781EA063206908B9012000E000200D
:101D900060B904F1100000F0E7F938B14FF080505D
:101DA0002F490860BFF34F8FBFF36F8FFFF7B6FA6D
:101DB000012006B0BDE8F081059818B9FFF7AEFA2A
:101DC0000020F6E7B8F1000F04D101A8FFF7D0FB1F
:101DD0004FF00108FFF7A2FAFFF766FCFFF774FA6D
:101DE00094F94400401C10B9002084F8440094F990
:101DF0004500401C10B9002084F84500FFF78EFA1A
:101E000005A901A800F02EF8F0B92046FEF7CEFE95
:101E1000A0B104F124000599FFF7BCFB2046FFF7B1
:101E2000F4F800F0EDF90028A3D14FF080500C49F0
:101E30000860BFF34F8FBFF36F8F9AE72046FFF71D
:101E4000E4F800F0DDF994E72046FFF7DEF800F053
:101E5000D7F92046FEF7AAFE00288AD00020A8E77E
:101E600004ED00E070B505460C4655B900BF5020A2
:101E700080F31188BFF34F8FBFF36F8F00BF00BF98
:101E8000FEE754B900BF502080F31188BFF34F8F95
:101E9000BFF36F8F00BF00BFFEE7FFF715FA1348CF
:101EA00002686868131A2068401C08B9002619E007
:101EB0000F4928680968884206D06868904203D8AC
:101EC0000126002020600DE02068984207D9206894
:101ED000C01A20602846FFF74BFB002602E00020D6
:101EE00020600126FFF71AFA304670BD2800001066
:101EF0003C0000102DE9FF4F85B08046894617460B
:101F0000DDE912ABB800FFF7C9F8064656B17020FC
:101F1000FFF7C4F804460CB1266304E03046FFF72F
:101F20001BFA00E000247CB10020CDE900ABCDE934
:101F300002403A4649464046089BFEF740FD20468F
:101F4000FEF7B6FB012501E04FF0FF35284609B04A
:101F5000BDE8F08F0549096809B9012005E0044989
:101F6000096809B9022000E0002070473000001025
:101F70005000001001490868704700002800001058
:101F80002DE9F0414FF000084348006800287BD15C
:101F900042480068451C4148056015BB4048006840
:101FA000006808B9012000E0002050B900BF5020AF
:101FB00080F31188BFF34F8FBFF36F8F00BF00BF57
:101FC000FEE73748076837480068354908603548F4
:101FD000076035480068401C33490860FEF768FF19
:101FE00000BF3248006885423BD300BF2C480068E0
:101FF000006808B9012000E0002020B14FF0FF3058
:102000002A4908602CE026480068C068C4686668F1
:10201000B54202D22548066022E0201DFFF70AF9EA
:10202000A06A18B104F11800FFF704F92049E06A2A
:102030000968884202D91E49E06A0860E16A01EB3A
:1020400081011C4A02EB8100211DFFF731F91A4979
:10205000E06A0968C96A8842C8D34FF00108C5E739
:1020600000BF15480068C06A00EB8000114951F8B4
:102070002000012801D94FF001081048006808B17C
:102080004FF0010805E0FFE70D480068401C0C49CF
:1020900008604046BDE8F0815000001028000010A4
:1020A000180000101C0000103C000010440000103C
:1020B0002C000010E4000010140000103800001084
:1020C0003400001070B505462C460026002D43D084
:1020D00022480068844201D1012000E0002050B96C
:1020E00000BF502080F31188BFF34F8FBFF36F8F75
:1020F00000BF00BFFEE7A06C50B900BF502080F3C6
:102100001188BFF34F8FBFF36F8F00BF00BFFEE793
:10211000A06C401EA064616CE06A88421CD0A06C78
:10212000D0B9201DFFF786F8606CE062E06AC0F16C
:102130000A00A0610A49E06A0968884202D9084990
:10214000E06A0860E16A01EB8101064A02EB810066
:10215000211DFFF7ADF80126304670BD14000010B8
:102160002C000010E400001070B50646F068C4684A
:1021700054B900BF502080F31188BFF34F8FBFF3D5
:102180006F8F00BF00BFFEE704F11800FFF752F8A1
:1021900015480068A0B9201DFFF74CF81349E06A04
:1021A0000968884202D91149E06A0860E16A01EBD6
:1021B00081010F4A02EB8100211DFFF779F804E04D
:1021C00004F118010B48FFF773F80B49E06A09683E
:1021D000C96A884204D9012501200849086000E045
:1021E0000025284670BD0000500000102C00001093
:1021F000E4000010D401001014000010380000109A
:1022000070B5002400263648006850B900BF502041
:1022100080F31188BFF34F8FBFF36F8F00BF00BFF4
:10222000FEE7FFF751F82E480068401E2C49086071
:102230000846006800284ED12A48006800284AD085
:1022400023E02948C068C46804F11800FEF7F2FFD3
:10225000201DFEF7EFFF2549E06A0968884202D990
:102260002249E06A0860E16A01EB8101204A02EB41
:102270008100211DFFF71CF81E49E06A0968C96A40
:10228000884202D301201C4908601748006808B939
:10229000012000E000200028D3D00CB1FEF708FE9A
:1022A0001648056865B100BFFFF76AFE10B101204E
:1022B000114908606D1E002DF6D100200F490860FD
:1022C0000D48006838B1012630070D490860BFF39A
:1022D0004F8FBFF36F8FFFF721F8304670BD0000BE
:1022E0005000001024000010D40100102C00001039
:1022F000E40000101400001038000010340000103A
:1023000004ED00E01CB50024FEF72AFA0E48006830
:1023100058B10E48092100234FF40072CDE9001096
:102320000BA10D48FFF7E6FD044654B900BF50204D
:1023300080F31188BFF34F8FBFF36F8F00BF00BFD3
:10234000FEE720461CBD00005C000010600000108D
:10235000546D722053766300F10F00082DE9FE439F
:1023600004460D4616461F46DDF828804FF000094A
:1023700054B900BF502080F31188BFF34F8FBFF3D3
:102380006F8F00BF00BFFEE71448006810B30095D0
:1023900001960294062D15DAFFF7DCFD022808D11C
:1023A0000023424669460D480068FFF71FFB81463F
:1023B00010E000231A46694608480068FFF716FB3C
:1023C000814607E000233A46694604480068FFF763
:1023D000F9FB81464846BDE8FE8300005C00001022
:1023E000100000000010024020000001100000005A
:1023F00000100240400000010400000000080240FC
:1024000000200001342400080000001094000000A7
:1024100030050008342400080000002000040100FA
:1024200040050008C824000894000010A401000022
:1024300040050008007A030A0000000000000000C8
:102440000102030406070809000000000000000064
:10245000000000000000000000000000000000007C
:10246000000000000000000000000000000000006C
:10247000000000000000000000000000000000005C
:102480000900000000000000000000000000000043
:10249000000000000000000000000000000000003C
:1024A000000000000000000000000000000000002C
:1024B000000000000000000000000000AAAAAAAA74
:0824C000000000000000000014
:040000050800018965
:00000001FF
